:100003007508FEC200E4F50975A0FEE50924F95060
:100013000624F95019802C8508A07F051200AEAF85
:10002300087801EF08800123D8FDF50880158508BD
:10003300A07F051200AEAF087801EF08800103D856
:10004300FDF508E5092401FFE433FE7C007D0E1273
:0600530000598D0980B583
:1000AE00AE071FEE600A7EC37D8ADDFEDEFC80F0A9
:0100BE00221F
:030000000200BF3C
:0C00BF00787FE4F6D8FD75812002000374
:10005900BC000BBE0029EF8DF084FFADF022E4CC8B
:10006900F875F008EF2FFFEE33FEEC33FCEE9DEC54
:10007900984005FCEE9DFE0FD5F0E9E4CEFD22ED9A
:10008900F8F5F0EE8420D21CFEADF075F008EF2FE4
:10009900FFED33FD4007985006D5F0F222C398FDD5
:0500A9000FD5F0EA2272
:00000001FF
